:020000040800F2
:1000000000800020151F00081D390008293900084C
:100010002F390008353900083B390008000000007E
:10002000000000000000000000000000413900084E
:100030004D390008000000005939000865390008F2
:100040009D390008813B00081139000800000000BC
:10005000000000008D3B0008993B0008E93B0008C8
:10006000393C000800000000453C0008513C0008F5
:100070005D3C000800000000693C0008753C000879
:10008000813C00088D3C000800000000993C0008FD
:10009000A53C000800000000000000000000000077
:1000A000000000000000000000000000B13C00085B
:1000B000D53C0008E13C0008ED3C0008F93C000894
:1000C00080B500AF124B002B09D0124B002B06D08D
:1000D00004F072F80346002B01D0012300E0002356
:1000E000002B01D0AFF300800B4B002B09D00B4B42
:1000F000002B06D004F070F80346002B01D001233A
:1001000000E00023002B01D0AFF3008000BF80BDD2
:10011000B941000800000000D941000800000000BB
:1001200080B588B002AFF860B9601346FB71FB7907
:10013000072B06D80023FB820023BB8200237B828F
:100140002DE0FB791F2B06D80823FB820023BB82FE
:1001500008237B8223E0FB79272B06D82023FB8210
:100160000623BB8200237B8219E0FB792F2B06D864
:100170002823FB820623BB8208237B820FE0FB79C6
:10018000372B06D83023FB820223BB8200237B82DD
:1001900005E03823FB820223BB8208237B82FB79A4
:1001A0009AB2FB8AD31A9BB21B01FB82FB681869C7
:1001B000B98AFA8A7B8A00930B46B96801F0FEFA85
:1001C00000BF1837BD4680BD80B582B000AF7860F3
:1001D0007B681A697B681B691B6810331B681046B3
:1001E0009847034618460837BD4680BD80B582B0A3
:1001F00000AF78607B681A697B681B691B681833DD
:100200001B6810469847034618460837BD4680BD10
:1002100080B582B000AF78607B681A697B681B6923
:100220001B6814331B681046984703461846083766
:10023000BD4680BD80B582B000AF78607B681A692A
:100240007B681B691B6808331B6810469847034688
:1002500018460837BD4680BD80B582B000AF7860D3
:100260007B681A697B681B691B680C331B68104626
:10027000984700BF0837BD4680BD80B582B000AF4B
:1002800078600B46FB707B681A697B681B691B688A
:100290001B68F97810469847034618460837BD464C
:1002A00080BD000080B483B000AF7860044A7B68F2
:1002B0001A607B6818460C37BD4680BC704700BF8B
:1002C000E461000880B582B000AF7860084611464E
:1002D0001A460346FB700B46BB7013467B707B6867
:1002E0001846FFF7DFFF0A4A7B681A607B68FA78D6
:1002F0001A717B68BA785A717B687A789A717B68D0
:100300003A7CDA717B6818460837BD4680BD00BF6D
:10031000D861000880B584B000AF786039600023F0
:10032000FB600023BB60BB68022B19DC7A68BB68EA
:10033000134404331B780A221946386800F0AFF8DA
:100340000246FB681344FB602E21386800F095F8E4
:100350000246FB681344FB60BB680133BB60E2E705
:100360007B68DB790A221946386800F098F8024663
:10037000FB681344FB60FB6818461037BD4680BD20
:1003800080B584B002AF786039607B68012B0CD1F6
:100390003B684FF6FF72934207D10023009300237E
:1003A000002200210348FFF78DFF00BF0837BD463C
:1003B00080BD00BF7800002080B500AF4FF6FF7110
:1003C0000120FFF7DDFF80BD80B483B000AF78600F
:1003D0007B689B6818460C37BD4680BC704780B46C
:1003E00083B000AF78607B681B6818460C37BD4649
:1003F00080BC704780B483B000AF7860002318469B
:100400000C37BD4680BC704780B483B000AF7860C5
:1004100000BF0C37BD4680BC7047B0B582B000AF9E
:10042000786039607B681B6804331C683868FFF7A4
:10043000D6FF05463868FFF7C7FF03461A46294628
:100440007868A047034618460837BD46B0BD90B54A
:1004500083B000AF786039607B681B6804331C6828
:10046000386805F01BFE03461A4639687868A047CD
:10047000034618460C37BD4690BD80B582B000AF2C
:1004800078600B46FB707B681B681B68FA78114626
:1004900078689847034618460837BD4680BD80B542
:1004A00084B000AFF8600B467A60FB72FB7A7A6822
:1004B0001946F86800F005F8034618461037BD469F
:1004C00080BD80B584B000AFF860B9607A607B68A9
:1004D000002B09D1FB681B681B68BA68D2B21146B1
:1004E000F8689847034608E07B68DBB21A46B968AB
:1004F000F86800F049F8034600BF18461037BD46BB
:1005000080BD000080B582B000AF78607B681B685A
:1005100004331B680222044978689847034618464A
:100520000837BD4680BD00BF1462000880B584B0A6
:1005300000AF7860396039687868FFF76EFF03466E
:10054000FB607868FFF7DEFF0246FB681344FB6040
:10055000FB6818461037BD4680BD80B584B000AF3B
:100560007860396039687868FFF771FF0346FB608F
:100570007868FFF7C7FF0246FB681344FB60FB681F
:1005800018461037BD4680BD90B58FB000AFF860FB
:10059000B9601346FB7107F1100320337B637B6B5B
:1005A00000221A70FB79012B01D80A23FB71FA791A
:1005B000BB68B3FBF2F101FB02F29B1A87F8333000
:1005C000FB79BA68B2FBF3F3BB6097F83330092BC1
:1005D00004D897F833303033DBB203E097F8333088
:1005E0003733DBB27A6B013A7A637A6B1370BB688C
:1005F000002B00D0DBE7FB681B6804331C68786BBA
:1006000005F04CFD03461A46796BF868A04703468F
:1006100018463C37BD4690BD80B586B000AFF86047
:10062000B9607A6000237B617B685A1E7A60002B78
:1006300014BF01230023DBB2002B18D0BA687B69FA
:1006400013441B78FB74FB681B681B68FA7C11461B
:10065000F86898470346002B14BF01230023DBB240
:10066000002B03D07B6901337B61DDE700BF7B6931
:1006700018461837BD4680BD80B582B000AF78609F
:100680000B46FB70FB781946786800F06AF97B68C6
:1006900018460837BD4680BD80B400AF024B1B68CA
:1006A0001846BD4680BC70474801002080B584B024
:1006B00000AF7860FFF7F0FF02467B68DA607B6886
:1006C0001B6814331B68786898470346FB60FB6817
:1006D000002B01DBFB6811E0FFF7DEFF02467B68C1
:1006E000DB68D21A7B689B689A4234BF01230023DF
:1006F000DBB2002B00D0E2E74FF0FF331846103793
:10070000BD4680BD80B584B000AF786039601149C6
:10071000786800F02CF83868FFF7C8FF0346FB60E4
:10072000FB68002B10DBFB68DBB219467868FFF72B
:10073000A3FF3868FFF7BAFF0346FB60F0E778686D
:1007400000F02EF803F026FF00BF78681037BD4692
:1007500080BD00BF4C62000880B582B000AF7860F9
:10076000786800F0AFFA00BF0837BD4680BD80B59D
:1007700082B000AF78603960786800F023F83B6899
:10078000002B08D0386805F089FC03461A46396802
:10079000786800F08DF87B6818460837BD4680BD44
:1007A00080B582B000AF78607B681B68002B04D0F6
:1007B0007B681B68184605F011FB7B6818460837F4
:1007C000BD4680BD80B483B000AF78607B680022F6
:1007D0001A607B6800225A607B6800229A6000BF22
:1007E0000C37BD4680BC704780B582B000AF7860E2
:1007F0007B681B68002B04D07B681B68184605F0DB
:10080000EDFA7B6800221A607B6800229A607B68A0
:100810009A687B685A6000BF0837BD4680BD80B5C6
:1008200082B000AF786039607B681B68002B06D00F
:100830007B685B683A689A4201D8012316E0396800
:10084000786800F017F80346002B14BF012300233B
:10085000DBB2002B09D07B689B68002B03D17B683F
:100860001B6800221A70012300E000231846083795
:10087000BD4680BD80B584B000AF786039607B68CC
:100880001A683B6801331946104605F099FBF86079
:10089000FB68002B07D07B68FA681A607B683A68AF
:1008A0005A60012300E0002318461037BD4680BD82
:1008B00080B584B000AFF860B9607A607968F86894
:1008C000FFF7ADFF0346002B0CBF01230023DBB273
:1008D000002B04D0F868FFF787FFFB6809E0FB688E
:1008E0007A689A60FB681B68B968184605F0CEFB09
:1008F000FB6818461037BD4680BD80B586B000AF96
:10090000F860B9607A60FB689B687A6813447B6121
:10091000BB68002B01D100231FE07B68002B01D1B5
:1009200001231AE07969F868FFF779FF0346002B85
:100930000CBF01230023DBB2002B01D000230CE00D
:10094000FB681A68FB689B681344B968184605F091
:100950009DFBFB687A699A60012318461837BD46EB
:1009600080BD80B584B000AF78600B46FB70FB782B
:100970003B7300237B7307F10C030122194678684F
:10098000FFF7BBFF034618461037BD4680BD80B554
:1009900000AF05F01BFA80B500AF00F07FF800BF94
:1009A00080BD000080B500AFFFF7F5FFAFF300801A
:1009B00003F05CFC03F0AEFC024B002BFAD0FFF717
:1009C0007FFBF7E7C100000880B582B000AF786018
:1009D000786805F003FA00BF0837BD4680BD000007
:1009E00080B483B000AF7860054A7B681A607B688A
:1009F00000225A607B6818460C37BD4680BC7047A1
:100A00002C62000880B582B000AF78607B68184621
:100A1000FFF7E6FF054A7B681A607B684FF47A723D
:100A20009A607B6818460837BD4680BD586200084A
:100A300080B483B000AF03463960FB7197F907308B
:100A4000002B0ADB3B68DAB20C4997F907305201F8
:100A5000D2B20B4483F800230AE03B68DAB20849BB
:100A6000FB7903F00F03043B5201D2B20B441A7618
:100A700000BF0C37BD4680BC704700BF00E100E0FE
:100A800000ED00E080B582B000AF7860786801F0DA
:100A90007BFE00BF78680837BD4680BD80B500AFDB
:100AA00001F0DAFC002001F023FD012001F020FD1F
:100AB00001F044FD0346012B14BF01230023DBB2E8
:100AC000002B00D0F4E700F021F80346184600F0B0
:100AD0009DF80121102001F039FE00F003F800BF5D
:100AE00080BD000080B400AF064B074ADA60054BBA
:100AF0004FF000629A6062B600BF00BFBD4680BC86
:100B0000704700BF00ED00E00005FA0580B400AFBB
:100B1000074B1B78012B02D0022B02D003E00123EC
:100B200002E0032300E000231846BD4680BC704766
:100B30008000002080B400AF074B1B78012B02D04F
:100B4000022B02D003E0012302E0022300E0002395
:100B50001846BD4680BC70478000002080B58AB032
:100B600000AF03463960FB7107F108031846FFF731
:100B700089FFFB79002B01D0BB6900E07B697B62B8
:100B80003B685A1C7B6A02FB03F33B623B6A1E4ACA
:100B9000A2FB0323DB0DFB77FB7F062B2CD801A2E6
:100BA00052F823F0C10B0008C90B0008D10B000854
:100BB000D90B0008E10B0008E90B0008F10B000855
:100BC000002001F0CDFA1BE0082001F0C9FA17E07F
:100BD000102001F0C5FA13E0182001F0C1FA0FE06F
:100BE000202001F0BDFA0BE0282001F0B9FA07E05F
:100BF000302001F0B5FA03E0382001F0B1FA00BF6F
:100C000000BF2837BD4680BD893BE65580B582B020
:100C100000AF7860012001F06BFC01F08FFC03460F
:100C2000012B0CBF01230023DBB2002B1ED07968FF
:100C3000022001F0DBFC012001F020FD01F02EFD7F
:100C40000346012B0CBF01230023DBB2002B0DD088
:100C500079680120FFF782FF002001F043FD0120A9
:100C600001F0FCFC4FF4807001F056FD00F004F838
:100C700000BF0837BD4680BD80B586B000AF3B469B
:100C8000184601F081FD3B687B617B699B090B4A3B
:100C9000A2FB03239B090A4A013B536007214FF043
:100CA000FF30FFF7C5FE064B00229A60044B072277
:100CB0001A6000BF1837BD4680BD00BF632D3E05DA
:100CC00010E000E080B485B000AF7860074B1B688F
:100CD0007A681344FB60054B1B68FA689A4200D09F
:100CE000F9E700BF1437BD4680BC704748010020BB
:100CF00080B584B000AF0346FB71FB79052B27D884
:100D000001A252F823F000BF210D0008290D0008B0
:100D1000310D0008390D0008410D0008490D00088B
:100D20004FF40013FB6013E04FF48003FB600FE00F
:100D30004FF40003FB600BE04FF08073FB6007E0B3
:100D40004FF00073FB6003E04FF00053FB6000BF07
:100D50000121F86801F0FAFC00BF1037BD4680BDE4
:100D600080B483B000AF0346FB71FB79002B09D040
:100D7000FB79082B06D8FB79013B012202FA03F329
:100D80009BB241E0FB79082B09D9FB79132B06D8DC
:100D9000FB79093B012202FA03F39BB234E0FB79B1
:100DA000132B09D9FB79162B06D8FB79143B0122AA
:100DB00002FA03F39BB227E0FB79162B09D9FB79E2
:100DC0001E2B06D8FB79173B012202FA03F39BB2D4
:100DD0001AE0FB791E2B09D9FB79262B06D8FB7963
:100DE0001F3B012202FA03F39BB20DE0FB79262B95
:100DF00009D9FB792A2B06D8FB79273B012202FA75
:100E000003F39BB200E0002318460C37BD4680BCBC
:100E10007047000080B483B000AF0346FB71FB79DC
:100E2000002B04D0FB79082B01D8184B28E0FB7964
:100E3000082B04D9FB79132B01D8154B20E0FB7943
:100E4000132B04D9FB79162B01D8124B18E0FB7930
:100E5000162B04D9FB791E2B01D80F4B10E0FB7920
:100E60001E2B04D9FB79262B01D80C4B08E0FB790B
:100E7000262B04D9FB792A2B01D8094B00E000234B
:100E800018460C37BD4680BC704700BF00800A4042
:100E900000000B4000800B4000000C4000800C4024
:100EA00000800E4080B483B000AF0346FB71FB7935
:100EB000002B04D0FB79082B01D8002320E0FB791C
:100EC000082B04D9FB79132B01D8012318E0FB79F7
:100ED000132B04D9FB79162B01D8022310E0FB79E0
:100EE000162B04D9FB791E2B01D8032308E0FB79CC
:100EF0001E2B04D9FB79262B01D8042300E00523FF
:100F000018460C37BD4680BC704780B586B000AF30
:100F100003463960FB71FB791846FFF7C3FF0346B0
:100F2000FB75FB7D1846FFF7E3FEFB791846FFF7DC
:100F300071FF3861FB791846FFF712FF0346FB602B
:100F4000FB689AB23B681A803968386901F016F973
:100F500000BF1837BD4680BD80B586B000AF0346E0
:100F6000FB7100233B750023FB740123BB75002339
:100F7000BB730023BB7400237B7400233B740023EA
:100F8000FB7301237B7507F10C02FB7911461846B0
:100F9000FFF7BBFF00BF1837BD4680BD80B586B0E8
:100FA00000AF0346FB7100233B750023FB74012354
:100FB000BB750023BB730023BB7400237B74002329
:100FC0003B740123FB7301237B7507F10C02FB7952
:100FD00011461846FFF799FF00BF1837BD4680BD80
:100FE00080B586B000AF0346FB7100233B7500233C
:100FF000FB740123BB750023BB730023BB74002368
:101000007B7401233B740023FB7301237B7507F181
:101010000C02FB7911461846FFF777FF00BF18371F
:10102000BD4680BD80B586B000AF0346FB7100238E
:101030003B750023FB740123BB750123BB730023A5
:10104000BB7400237B7400233B740023FB730123D8
:101050007B7507F10C02FB7911461846FFF755FF27
:1010600000BF1837BD4680BD80B582B000AF0346D3
:101070000A46FB711346BB71FB79002B0ED0FB793E
:10108000082B0BD8FB79013B012202FA03F3194626
:10109000BB791A46304801F0B5F959E0FB79082BC5
:1010A0000ED9FB79132B0BD8FB79093B012202FAED
:1010B00003F31946BB791A46284801F0A3F947E023
:1010C000FB79132B0ED9FB79162B0BD8FB79143B2C
:1010D000012202FA03F31946BB791A46204801F0AF
:1010E00091F935E0FB79162B0ED9FB791E2B0BD825
:1010F000FB79173B012202FA03F31946BB791A4622
:10110000184801F07FF923E0FB791E2B0ED9FB79FB
:10111000262B0BD8FB791F3B012202FA03F3194659
:10112000BB791A46104801F06DF911E0FB79262BC6
:101130000ED9FB792A2B0BD8FB79273B012202FA27
:1011400003F31946BB791A46084801F05BF9FFE73B
:1011500000BF0837BD4680BD00800A4000000B403C
:1011600000800B4000000C4000800C4000800E40CE
:1011700080B582B000AF0346FB71FB79002B12D023
:10118000FB79082B0FD8FB79013B012202FA03F30C
:1011900019463E4801F020F90346002B14BF0123F5
:1011A0000023DBB26EE0FB79082B12D9FB79132BFD
:1011B0000FD8FB79093B012202FA03F319463448A0
:1011C00001F00AF90346002B14BF01230023DBB210
:1011D00058E0FB79132B12D9FB79162B0FD8FB792A
:1011E000143B012202FA03F319462A4801F0F4F8ED
:1011F0000346002B14BF01230023DBB242E0FB793E
:10120000162B12D9FB791E2B0FD8FB79173B012225
:1012100002FA03F31946204801F0DEF80346002BDA
:1012200014BF01230023DBB22CE0FB791E2B12D963
:10123000FB79262B0FD8FB791F3B012202FA03F31F
:101240001946164801F0C8F80346002B14BF0123C5
:101250000023DBB216E0FB79262B12D9FB792A2B6F
:101260000FD8FB79273B012202FA03F319460C48F9
:1012700001F0B2F80346002B14BF01230023DBB2B8
:1012800000E0002318460837BD4680BD00800A40B4
:1012900000000B4000800B4000000C4000800C4020
:1012A00000800E4080B586B000AF3B1D1846FFF7AA
:1012B000E9FB7B6818461837BD4680BD80B582B013
:1012C00000AF78607B689B680121184601F03EFA08
:1012D00000BF0837BD4680BD80B485B000AFF86060
:1012E0007A603B600B46FB72FB68FA7A1A70FB6807
:1012F0007A685A60FB683A689A60FB681846143747
:10130000BD4680BC7047000080B590B000AF7860EB
:101310000B467B807B685B68184601F089FB07F110
:101320002403184601F030FAFFF7BCFF0346FB63C5
:10133000FB6BDA087B88B2FBF3F3BB63BB6B1A4A27
:10134000A2FB0323DB0B9AB27B689A81BB6B9AB238
:101350007B689B895B429BB2D31A9AB27B68DA8125
:101360007B689B89FB817B68DB893B8200237B82D6
:101370000023BB820023FB8200233B8300237B836B
:101380000023BB830023FB8300233B8400237B8457
:101390007B685B6807F10C021146184601F0B1FB4F
:1013A00000BF4037BD4680BD0180008080B582B05F
:1013B00000AF78600B46FB701346BB70FB78194694
:1013C000786800F00AF8BA78F9780023786800F0B5
:1013D0006DF800BF0837BD4680BDF0B597B008AFC7
:1013E00078600B46FB7007F12C00FA7801237968CE
:1013F00000F033F807F12000FA780223796800F052
:101400002CF807F11400FA780323796800F025F826
:1014100007F10805FE7804AC07F1140393E8070010
:1014200084E8070001AC07F1200393E8070084E893
:1014300007007B6B009307F12C030CCB3146284649
:1014400002F06EFD07F10802FB7811461846FFF71F
:101450005CFD00BF3C37BD46F0BD80B586B000AF37
:10146000F860B96011461A460B46FB711346BB7112
:10147000F86800F089FFFB791846FFF771FC034616
:10148000FB82FB68FA8A1A80FB6801229A70FB686B
:10149000BA791A72FB6801229A72FB6802225A72A8
:1014A00000BFF8681837BD4680BD000080B590B019
:1014B00000AF7860084611461A460346FB700B469B
:1014C000BB7013467B7007F13403FA781146184657
:1014D00002F044FC97F8343083F00103DBB2002BB8
:1014E00056D13B8FFB8707F11C03184601F0ACFB7C
:1014F0000023FB834FF44063FB84FB8FBB837B683B
:101500005B6807F11C021146184601F053FBBB78DB
:101510007A68D28902FB03F31F4A82FB031252113D
:10152000DB17D31ABB877B685B68F98FBA8F1846C5
:1015300001F0B7FB07F10803184601F006FC002391
:101540007B810223BB810123FB817B78002B02D0AE
:1015500000237B8101E001233B8202237B82012364
:10156000BB82FB8F3B817B685B6807F108021146F9
:10157000184601F0ACFB7B685B680321184601F05C
:1015800009FC7B685B680121184601F0F6FA00E06F
:1015900000BF4037BD4680BD1F85EB5180B584B08C
:1015A00000AF0346FB7107F10803FA7911461846AC
:1015B00002F0D4FBFB7A032B0ED0032B10DC012BA3
:1015C00002D0022B04D00BE000F010F8034608E034
:1015D00000F03AF8034604E000F064F8034600E047
:1015E000002318461037BD4680BD000080B500AF0F
:1015F000124B1B78BFF35B8FDBB203F00103002BB0
:101600000CBF01230023DBB2002B14D00B4803F0E6
:101610001AFB0346002B14BF01230023DBB2002B6F
:1016200009D04FF48043064A01210648FFF754FED3
:10163000024803F014FB034B184680BD94000020C1
:10164000000007408400002080B500AF124B1B78DB
:10165000BFF35B8FDBB203F00103002B0CBF012350
:101660000023DBB2002B14D00B4803F0ECFA034646
:10167000002B14BF01230023DBB2002B09D04FF451
:101680000043064A02210648FFF726FE024803F0FF
:10169000E6FA034B184680BDA800002000800740F2
:1016A0009800002080B500AF124B1B78BFF35B8F12
:1016B000DBB203F00103002B0CBF01230023DBB2DC
:1016C000002B14D00B4803F0BEFA0346002B14BFC6
:1016D00001230023DBB2002B09D04FF48033064AEC
:1016E00003210648FFF7F8FD024803F0B8FA034B60
:1016F000184680BDBC00002000000840AC0000205F
:1017000080B483B000AF0346FB7197F90730002B1C
:101710000BDBFB7903F01F02064997F907305B09E1
:10172000012000FA02F241F8232000BF0C37BD4629
:1017300080BC704700E100E090B585B000AFF86074
:10174000B9607A60FB70FB681846FFF75BF91A4ACC
:10175000FB681A60FB68BA681A61FB687A685A61AC
:10176000FB68FA781A76FB6803F11A0407F1200384
:1017700007CB20606160A260FB6897F82C205A7646
:10178000FB6803F1260407F1300307CB206061609A
:10179000A260FB6897F83C2083F83220FB683A6C23
:1017A0005A63FB687A6C9A63FB68BA6CDA63FB680D
:1017B00018461437BD4690BD7C62000890B58BB0CA
:1017C00000AFF860B96011461A460B46FB8013461D
:1017D000BB80FB681A7EFB681A3319461046FFF778
:1017E00094FBFB685A7EFB68263319461046FFF7C8
:1017F0008CFBFB685B690121184600F0A7FFFB68C2
:101800001C69FFF797F903461946204601F000FCD2
:10181000FB6893F93230B3F1FF3F22D0002387F801
:10182000273097F827303F2B0ED8FB68DA6B97F8F4
:1018300027309B0013444FF0FF321A6097F827308F
:10184000013387F82730ECE7FB6893F9323018460C
:10185000FFF756FFFB681B6901221021184601F0B3
:1018600089FBBB687B61FB883B833B8F7B83BB88A9
:10187000BB830023FB834FF440733B84FB681B69ED
:1018800007F114021146184601F0D0FA0346002B66
:1018900014BF0123002387F8263097F82630002B49
:1018A00005D0FB681B690121184601F047FB97F83A
:1018B000263018462C37BD4690BD80B582B000AFAB
:1018C00078607B6893F93230B3F1FF3F0ED07B68CC
:1018D000DA6B7B689B6B1B789B0013441B68B3F12E
:1018E000FF3F14BF01230023DBB206E07B681B69C6
:1018F0004021184601F076FB034618460837BD46DE
:1019000080BD80B582B000AF78607B6893F93230DB
:10191000B3F1FF3F08D07B68DA6B7B689B6B1B7869
:101920009B0013441B6816E07B681B694021184626
:1019300001F058FB0346012B14BF01230023DBB247
:10194000002B02D04FF0FF3305E07B681B6918467F
:1019500001F03CFB034618460837BD4680BD80B504
:1019600084B000AF78607B6893F93230B3F1FF3F09
:1019700027D07B68DA6B7B689B6B1B789B001344DA
:101980001B68FB60FB68B3F1FF3F18D07B68DA6B24
:101990007B689B6B1B789B0013444FF0FF321A60EF
:1019A0007B689B6B1A780132D2B21A707B689B6B92
:1019B0001B78402B03D17B689B6B00221A70FB685D
:1019C00016E07B681B694021184601F00BFB0346BB
:1019D000012B14BF01230023DBB2002B02D04FF0F8
:1019E000FF3305E07B681B69184601F0EFFA0346F8
:1019F00018461037BD4680BD80B582B000AF786014
:101A00007B681B698021184601F0ECFA03461846F2
:101A10000837BD4680BD80B582B000AF78607B6876
:101A20001B698021184601F0DDFA0346012B14BF23
:101A300001230023DBB2002B00D0F0E700BF083702
:101A4000BD4680BD80B582B000AF78600B46FB70AC
:101A50007B681B698021184601F0C4FA0346012BFC
:101A600014BF01230023DBB2002B00D0F0E77B681A
:101A70001B69FA7892B21146184601F098FA0123D0
:101A800018460837BD4680BD90B593B00CAF002313
:101A9000FB7300233B7400237B740023BB7400237F
:101AA000FB7403233B7503237B750123BB75002364
:101AB000BB730023FB7000233B7100237B71002369
:101AC000BB710023FB7103233B7203237B72012351
:101AD000BB720123BB701F4B1B78BFF35B8FDBB264
:101AE00003F00103002B0CBF01230023DBB2002B0A
:101AF0002AD0184803F0A7F80346002B14BF01238F
:101B00000023DBB2002B1FD0134B0A93134B099316
:101B1000134B08930623079304AC3B4693E8070056
:101B200084E80700082303936C4607F10C0393E84D
:101B3000070084E80700072340220A490A48FFF704
:101B4000FBFD044803F08BF8074B18461C37BD46D5
:101B500090BD00BF00010020AC050020A9050020B9
:101B6000A805002000000340C000002090B593B0FD
:101B70000CAF0023FB7300233B7400237B74002312
:101B8000BB740023FB7402233B7503237B75012385
:101B9000BB750023BB730023FB7000233B71002344
:101BA0007B710023BB710023FB7102233B72032373
:101BB0007B720123BB720123BB701F4B1B78BFF3E9
:101BC0005B8FDBB203F00103002B0CBF012300236A
:101BD000DBB2002B2AD0184803F035F80346002B5F
:101BE00014BF01230023DBB2002B1FD0134B0A9339
:101BF000134B0993134B08930723079304AC3B46FD
:101C000093E8070084E80700182303936C4607F164
:101C10000C0393E8070084E80700172380220A4991
:101C20000A48FFF789FD044803F019F8074B1846E6
:101C30001C37BD4690BD00BF44010020B006002007
:101C4000AD060020AC060020008003400401002007
:101C500080B584B000AF03460A46FB711346BB71E2
:101C6000FB79154AD35CFB73BB79032B1ED801A209
:101C700052F823F0851C0008A31C00088F1C0008E4
:101C8000991C0008FB7B1846FFF766F90FE0FB7B09
:101C90001846FFF783F90AE0FB7B1846FFF7A0F927
:101CA00005E0FB7B1846FFF7BDF900E000BF00BF71
:101CB0001037BD4680BD00BFF062000880B584B01B
:101CC00000AF03460A46FB711346BB71FB79094A14
:101CD000D35CFB73BB79002B14BF01230023DAB262
:101CE000FB7B11461846FFF7BFF900BF1037BD4612
:101CF00080BD00BFF062000880B584B000AF03462D
:101D0000FB71FB79054AD35CFB73FB7B1846FFF73D
:101D10002FFA034618461037BD4680BDF062000812
:101D200080B483B000AF786039607B683A685A60ED
:101D300000BF0C37BD4680BC7047000080B582B044
:101D400000AF78607B681846FEF75CFE034A7B684C
:101D50001A607B6818460837BD4680BDBC62000823
:101D600080B582B000AF78600B46FB70114B1B78DA
:101D7000002B1AD0104B1B781F2B06D97B68012132
:101D80001846FFF7CDFF002310E00C4B1B781946D7
:101D90000B4AFB785354094B1B780133DAB2074BDB
:101DA0001A70064B1A78044B1A700123184608372C
:101DB000BD4680BD960100209501002094010020C1
:101DC0007401002080B586B000AFF860B9607A6019
:101DD0000E4B1B78002B13D000237B617A697B6844
:101DE0009A420DD2FB681B681B68B9687A690A447D
:101DF00012781146F86898477B6901337B61EDE7FB
:101E00007B6818461837BD4680BD00BF960100208C
:101E100080B483B000AF7860054B1B781A46054B41
:101E20001B78D31A18460C37BD4680BC704700BFDC
:101E3000710100207001002080B485B000AF78608F
:101E40004FF0FF33FB600C4B1A780C4B1B789A4217
:101E50000BD2094B1B781A46094B9B5CFB60064B67
:101E60001B780133DAB2044B1A70FB68184614373A
:101E7000BD4680BC704700BF70010020710100208A
:101E80005001002080B485B000AF78604FF0FF3380
:101E9000FB60094B1A78094B1B789A4205D2064B16
:101EA0001B781A46064B9B5CFB60FB681846143790
:101EB000BD4680BC704700BF70010020710100204A
:101EC0005001002080B483B000AF786000BF0C37B1
:101ED000BD4680BC7047000080B582B000AF78601E
:101EE00039607B68012B07D13B684FF6FF72934244
:101EF00002D10348FFF722FF00BF0837BD4680BD6F
:101F00009801002080B500AF4FF6FF710120FFF768
:101F1000E3FF80BD0A490B4A0B4B9A42BEBF51F802
:101F2000040B42F8040BF8E70849094A00209142E3
:101F3000BCBF41F8040BFAE700F00EF8FEF732FDE3
:101F4000A46A00080000002078000020780000202B
:101F5000D4080020FEE700BF80B584B000AF234A5C
:101F6000234BD31A9B107B6000233B6007E0204A81
:101F70003B6852F8233098473B6801333B607A68EE
:101F80003B689A42F3DC1B4A1B4BD31A9B107B60C5
:101F900000233B6007E0184A3B6852F8233098471B
:101FA0003B6801333B607A683B689A42F3DC00BFD0
:101FB000124A134BD31A9B10FB60FB68BB6008E00E
:101FC000BB68013B0E4A52F823309847BB68013B7F
:101FD000BB60BB68002BF3DC00BF0A4B4FF0006214
:101FE0009A6000BF1037BD4680BD00BF6C00002066
:101FF0006C000020780000206C0000207800002099
:102000007800002000ED00E080B485B000AF78607B
:10201000084B1A6D7B681340002B02D00123FB7321
:1020200001E00023FB73FB7B18461437BD4680BCE0
:10203000704700BF00800D4080B586B000AFF860EB
:10204000B9607A60BB6820331B01FA68134404331B
:10205000184600F06DF878617B69DBB203F00F037E
:10206000DAB27B689A717B6800225A717B6903F44B
:102070008053002B02D07B6801225A717B680022BA
:102080001A71BB6810339B00FA681344184600F0BD
:102090004FF878617B6903F00403002B02D07B6862
:1020A00001221A71BB6820331B01FA6813441846D9
:1020B00000F03EF802467B681A60BB681B0103F51E
:1020C0000273FA681344184600F032F802467B683F
:1020D0009A60BB681B0103F50273FA68134404336A
:1020E000184600F025F802467B68DA6000BF183712
:1020F000BD4680BD80B487B000AFF860B9607A603B
:10210000FB68BA68103253F822307B617B68012B80
:1021100003D17B6923F040037B61FB68BA6810320E
:10212000796943F8221000BF1C37BD4680BC704758
:1021300080B485B000AF786072B600BF7B681B6862
:10214000FB60FB68002B02D17B681B68FB6062B6FA
:1021500000BFFB6818461437BD4680BC70470000BE
:1021600080B483B000AF7860034A7B68136000BF1F
:102170000C37BD4680BC70470080014080B48FB0F2
:1021800000AF786039607B685B687B637B689B68C5
:102190003B637B68DB68FB627B681B69BB627B68B7
:1021A0005B697B627B689B693B627B68DB69FB6187
:1021B00000237B6101233B610323FB604FF001138C
:1021C000BB603B681B88BB6179E0BB6903F001031E
:1021D000002B65D03B69DA437B6B13403A689278F9
:1021E00011467A6901FA02F213437B63FB68DA4312
:1021F0003B6B13403A68127A11467A69520001FA31
:1022000002F213433B633B69DA43FB6A13403A68CB
:10221000927A11467A6901FA02F21343FB62BB68B3
:10222000DA43BB6A13403A68D27811467A691032B1
:1022300001FA02F213433A68127911467A6901FAF7
:1022400002F21343BB62BB68DA437B6A13403A680D
:10225000527911467A69103201FA02F213433A6850
:10226000927911467A6901FA02F213437B62FB68A4
:10227000DA433B6A13403A68527A11467A6952004F
:1022800001FA02F213433B623B69DA43FB691340F4
:102290003A68D27911467A6901FA02F21343FB6176
:1022A0003B695B003B61FB689B00FB60BB685B00BC
:1022B000BB607B6901337B61BB695B08BB61BB6948
:1022C000002B82D17B682F4A934202D16FF0060225
:1022D00001E04FF0FF327B6B1A407B685A607B68ED
:1022E000284A934202D16FF0060201E04FF0FF321C
:1022F0003B6B1A407B689A607B68224A934202D10A
:102300006FF0060201E04FF0FF32FB6A1A407B6873
:10231000DA607B681B4A934202D16FF0060201E04B
:102320004FF0FF32BB6A1A407B681A617B68154A1E
:10233000934202D16FF0060201E04FF0FF327B6A58
:102340001A407B685A617B680E4A934202D16FF053
:10235000060201E04FF0FF323B6A1A407B689A6147
:102360007B68084A934202D16FF0060201E04FF009
:10237000FF32FB691A407B68DA6100BF3C37BD461B
:1023800080BC704700000B4080B483B000AF786021
:102390007B684FF6FF721A807B6800229A707B6818
:1023A0000022DA707B6800221A717B6800225A7161
:1023B0007B6800229A717B680022DA717B680022B8
:1023C0001A727B6800225A727B6800229A7200BFE0
:1023D0000C37BD4680BC704780B485B000AF7860D4
:1023E00039607B681A683B681340002B02D00123D8
:1023F000FB7301E00023FB73FB7B18461437BD46DB
:1024000080BC704780B487B000AFF860B9601346F5
:10241000FB71FB681B68FA680E498A4202D16FF0B3
:10242000060201E04FF0FF3213407B61FB79002B85
:1024300005D07A69BB681A43FB681A6005E0BB687F
:10244000DA437B691A40FB681A6000BF1C37BD463F
:1024500080BC704700000B4080B500AF00F016F85C
:1024600001214FF0006000F071F9074BDB6B064A69
:1024700043F48103D363044BDB6B034A03F481030E
:10248000D36300BF80BD00BF00800D4080B500AFAA
:10249000012000F077F800F085F8002000F03CF90A
:1024A000114BDB68104B0022DA600F4B5B680E4B60
:1024B00000225A600C4B9B680B4B00229A600A4B1F
:1024C0001B69094B00221A61074B5B69064B00220E
:1024D0005A61054B9B69044B00229A61024B034AE7
:1024E000DA6100BF80BD00BF00000240100000089C
:1024F00080B483B000AF78600F4B9B680E4A23F026
:10250000030393607B68012B03D07B68022B07D009
:102510000DE0094B9B68084A43F00103936006E015
:10252000054B9B68044A43F00303936000BF00BF60
:102530000C37BD4680BC70470000024080B582B0B9
:1025400000AF00233B60222000F048FA0346BB7135
:102550003B6801333B603B68B3F5C06F02D2BB7987
:10256000002BF0D0222000F039FA0346002B02D0D5
:102570000123FB7101E00023FB71FB79184608374A
:10258000BD4680BD80B483B000AF0346FB71044AF2
:10259000FB79136000BF0C37BD4680BC704700BF9D
:1025A000D807B04380B582B000AF00233B6017204E
:1025B00000F014FA0346BB713B6801333B603B6893
:1025C000B3F5C06F02D2BB79002BF0D0172000F01A
:1025D00005FA0346002B02D00123FB7101E0002322
:1025E000FB71FB7918460837BD4680BD80B485B0C5
:1025F00000AF78603960164BDB68FB60FB6823F046
:102600000303FB60FA687B681343FB60104AFB68B6
:10261000D3600F4B5B68FB60FB6823F47063FB6067
:102620003B681B02FA681343FB60094AFB6853606E
:10263000084B1B68002B05D0074B01221A60064B84
:1026400000221A6000BF1437BD4680BC704700BF2F
:1026500000000240880040428C00404280B483B0B9
:1026600000AF0346FB71044AFB79136000BF0C37CF
:10267000BD4680BC704700BF8801404280B483B033
:1026800000AF0346FB71044AFB79136000BF0C37AF
:10269000BD4680BC704700BF8800404280B582B014
:1026A00000AF00233B60212000F098F90346BB7186
:1026B0003B6801333B603B68B3F5C06F02D2BB7926
:1026C000002BF0D0212000F089F90346002B02D026
:1026D0000123FB7101E00023FB71FB7918460837E9
:1026E000BD4680BD80B485B000AF7860094BDB6823
:1026F000FB60FB6823F0F003FB607B681B01FA685A
:102700001343FB60034AFB68D36000BF1437BD4628
:1027100080BC70470000024080B485B000AF786094
:10272000094BDB68FB60FB6823F44073FB60FA68CD
:102730007B681343FB60044AFB68D36000BF143717
:10274000BD4680BC704700BF0000024080B483B02B
:1027500000AF78600B46FB70FB78002B06D0094B6E
:10276000DA6908497B681343CB6106E0054BDA69F7
:102770007B68DB4303491340CB6100BF0C37BD4688
:1027800080BC70470000024080B491B000AF786018
:102790008F4BDB6803F00203002B02D08D4BFB63F1
:1027A00001E08D4BFB638A4BDB6803F00103002BD8
:1027B00002D0FB6B5B08FB63FB6BBB63844BDB688A
:1027C00003F00403002B0BD0814B5B681B0A03F062
:1027D0000F0301333B61BB6B3A6902FB03F3BB633D
:1027E0007B4BDB681B0A03F00303022B22D0022B76
:1027F00025D8002B02D0012B04D020E07B68764A3C
:102800001A6021E0724BDB681B0903F00803002B00
:1028100002D1BB6B7B6309E06D4BDB681B0903F0E6
:1028200007030133BA6B22FA03F37B637B687A6B8D
:102830001A6009E07B684FF400421A6004E07B688C
:1028400049F640421A6000BF614B1B6903F0020366
:10285000002B02D05F4B3B6301E05F4B3B635C4B63
:102860001B6903F00103002B02D03B6B5B083B6349
:102870003B6BFB62564B1B6903F00403002B0BD030
:10288000534B5B681B0903F00F0301333B61FB6A89
:102890003A6902FB03F3FB62FB6ABB624C4B1B69A8
:1028A00003F01003002B02D0BB6A5B08BB627B689D
:1028B000BA6A5A60464B9B691B09FB60FB6803F0D0
:1028C0000803002B02D1444BBB610CE0FB6803F012
:1028D00007030133012202FA03F3FB603E4AFB685F
:1028E000B2FBF3F3BB617B68BA69DA60384B9B6972
:1028F000FB60FB6803F00803002B02D1354B7B61C2
:102900000CE0FB6803F007030133012202FA03F332
:10291000FB60304AFB68B2FBF3F37B617B687A694A
:102920001A612B4B5B6903F00303022B0CD0022BC3
:102930000DD8002B02D0012B03D008E0FB6B7B628B
:1029400008E03B6B7B6205E0BB6B7B6202E0FB6AED
:102950007B6200BF1E4B5B691B0903F00303022B64
:102960000ED0022B0FD8002B02D0012B04D00AE08E
:102970004FF400433B6209E049F640433B6205E007
:102980007B6A3B6202E0BB693B6200BF104B5B6944
:102990001B0AFB60FB6803F00803002B02D13B6AB3
:1029A000FB610CE0FB6803F007030133012202FA2C
:1029B00003F3FB603A6AFB68B2FBF3F3FB617B68ED
:1029C000FA699A6000BF4437BD4680BC704700BFBB
:1029D000000002400024F40000127A0080B485B0A8
:1029E00000AF78607B6803F0E003202B03D10E4B2F
:1029F0001B68FB6002E00D4BDB6BFB607B6803F048
:102A00001F03FA6822FA03F303F00103002B02D03C
:102A10000123FB7201E00023FB72FB7A1846143796
:102A2000BD4680BC704700BF0000024000800D40E2
:102A300080B483B000AF78607B680022DA607B6886
:102A400000221A607B6800225A607B6800229A602C
:102A50007B6800221A627B6800225A627B6800222F
:102A60009A627B680022DA627B6800221A637B68C4
:102A700000225A637B6800229A637B680022DA6333
:102A80007B6800221A667B6800225A667B680022F7
:102A90009A667B680022DA667B6800221A617B688E
:102AA00000225A617B6800229A617B680022DA6109
:102AB0007B6800221A677B6800225A677B680022C5
:102AC0009A677B680022DA677B6800221A647B6859
:102AD00000225A647B6800229A647B680022DA64D0
:102AE0007B6800221A657B6800225A657B68002299
:102AF0009A657B680022DA6500BF0C37BD4680BC52
:102B0000704780B485B000AF786039603B681B883F
:102B10001A467B681A603B685B881A467B685A6075
:102B20003B689B881A467B689A603B68DB881A463C
:102B30003B681B8913443A68528913443A68928966
:102B400013443A68D2891344FB607B68FA68DA6000
:102B50003B681B8A1B013A68528A13443A68928A7E
:102B600013443A68D28A1344BB607B68BA681A651A
:102B700000BF1437BD4680BC704780B485B000AF3D
:102B800078600B46FB707B68DB68FB60FB78002B92
:102B900004D0FB6843F00103FB6003E0FB6823F013
:102BA0000103FB607B68FA68DA6000BF1437BD463A
:102BB00080BC704780B487B000AF786039603B68F4
:102BC0005B881A463B68DB8813443A6812891344D1
:102BD0003A6852891A443B689B899B0113443A68BE
:102BE000D28913443A68128A13447B613B689B88FC
:102BF000002B03D07B6903F500537B613B681B8886
:102C0000FB607B6803F12002FB689B0013447A6938
:102C10001A603B685B8A1A463B68DB8A13443B6157
:102C20003B689B8A002B02D03B6904333B617B6885
:102C300003F16002FB689B0013443A691A6000BF0D
:102C40001C37BD4680BC704780B483B000AF78604D
:102C50007B6800221A807B6800225A807B680022F1
:102C60009A807B680022DA807B6800221A817B6868
:102C700000225A817B6800229A817B680022DA81D7
:102C80007B6800221A827B6800225A827B680022BD
:102C90009A827B680022DA8200BF0C37BD4680BC76
:102CA000704780B487B000AFF860B9601346FB800E
:102CB000FB6803F11002BB689B0013447B61FA8838
:102CC0007B691A6000BF1C37BD4680BC704780B46A
:102CD00087B000AF786039603B685B881A013B6859
:102CE0009B889B0013443A68D2881A443B681B892E
:102CF0001B031A443B685B899B021A443B689B890F
:102D00001B0213447B613B681B883B617B6803F1BA
:102D100030023B699B0013447A691A603B68DB8987
:102D20001B023A68128A13443A68528A1344FB60C1
:102D30007B6803F140023B699B001344FA681A6008
:102D400000BF1C37BD4680BC704780B483B000AF65
:102D500078607B6800225A807B6800229A807B68BA
:102D60000022DA807B6800221A817B6800225A8167
:102D70007B6800229A817B680022DA817B680022CE
:102D80001A827B6800225A8200BF0C37BD4680BC85
:102D90007047000080B485B000AF786039601F4B89
:102DA0005B6AFB607B681E4A93420CD1FB6823F090
:102DB000FF03FB60FA683B681343FB60FB6843F06A
:102DC0008073FB6022E07B68164A93420DD1FB685A
:102DD00023F47F43FB603B681B02FA681343FB60EC
:102DE000FB6843F00073FB6010E07B680E4A93427F
:102DF0000CD1FB6823F47F03FB603B681B04FA687B
:102E00001343FB60FB6843F08063FB60034AFB688D
:102E1000536200BF1437BD4680BC704700000240BB
:102E200000000740008007400000084080B58EB0D9
:102E300000AF7860396007F108031846FFF7A4FC7B
:102E4000BB687B633A4B9B6A3B637B68394A93421E
:102E500007D13B6B03F007037A6B22FA03F37B6322
:102E60000BE07B68344A934207D13B6B1B0A03F0AB
:102E700007037A6B22FA03F37B633B681B689B08AA
:102E80007A6BB2FBF3F3FB62FB6A9B09BB62FB6AE2
:102E900003F03F037B627B6B9A00BB6A99017B6AFC
:102EA0000B44B2FBF3F33B623B681B683A6AD31AEC
:102EB000DA013B681B68B2FBF3F3FB61FB69022B91
:102EC00001D9002330E07B68BA6A5A627B687A6A6B
:102ED0009A627B68DB6A3B633B689A883B68DB8865
:102EE00013439AB23B681B8913439AB23B685B89D0
:102EF00013439BB21A463B6B13433B637B683A6BAD
:102F0000DA627B681B6B3B633B6B23F47F4323F0EC
:102F100080033B633B689B891A463B6B13433B63CF
:102F20007B683A6B1A63012318463837BD4680BD6B
:102F300000000240000003400080034080B483B0E2
:102F400000AF78600B46FB70FB78002B06D07B68E7
:102F50001B6B43F001027B681A6306E07B681A6B07
:102F60004FF6FE7313407A68136300BF0C37BD46FB
:102F700080BC704780B485B000AFF860B96013467C
:102F8000FB71FB79002B06D0FB689A6BBB681A4378
:102F9000FB689A6306E0FB689A6BBB68DB431A40E8
:102FA000FB689A6300BF1437BD4680BC704780B48D
:102FB00083B000AF78600B467B807B88DAB27B6899
:102FC0001A6000BF0C37BD4680BC704780B483B028
:102FD00000AF78607B681B689BB218460C37BD4613
:102FE00080BC704780B485B000AF786039607B6882
:102FF0009A693B681340002B02D00123FB7301E068
:103000000023FB73FB7B18461437BD4680BC70471A
:1030100080B485B000AF78603960164B9B6AFB6066
:103020007B68154A93420CD1FB6843F08073FB60C8
:10303000FB6823F0FF03FB60FA683B681343FB6007
:1030400010E07B680D4A93420CD1FB6843F000739B
:10305000FB60FB6823F47F43FB603B681B02FA685C
:103060001343FB60034AFB68936200BF1437BD46FD
:1030700080BC704700000240000003400080034015
:1030800080B483B000AF0346FB71054AFB7910336F
:103090001B0113441B6818460C37BD4680BC7047A3
:1030A0000000014080B485B000AF03463960FB7179
:1030B0000E4AFB7910331B0113441B68FB603B680D
:1030C0009BB2FA681343FB603B681B0CDB43FA6856
:1030D0001340FB60054AFB7910331B011344FA6867
:1030E0001A6000BF1437BD4680BC70470000014025
:1030F00080B483B000AF0346FB71064AFB791033FE
:103100001B01134404331B6818460C37BD4680BCB2
:10311000704700BF0000014080B483B000AF034699
:10312000FB71064AFB791B01134403F584731B688A
:1031300018460C37BD4680BC704700BF00000140F8
:1031400080B400AF034BD3F848311846BD4680BC6D
:10315000704700BF0000014080B483B000AF7860CA
:10316000044A7B68C2F8483100BF0C37BD4680BCBA
:10317000704700BF0000014080B483B000AF7860AA
:10318000044A7B68C2F8503100BF0C37BD4680BC92
:10319000704700BF0000014080B483B000AF034619
:1031A000FB71054AFB790333DB0113441B681846A6
:1031B0000C37BD4680BC70470000014080B483B02E
:1031C00000AF0346FB71064AFB79DB01134403F5AC
:1031D000C6731B6818460C37BD4680BC704700BFDD
:1031E0000000014080B483B000AF03463960FB713A
:1031F000064AFB79DB01134403F5C8733A681A6089
:1032000000BF0C37BD4680BC704700BF00000140C6
:1032100080B483B000AF03463960FB71064AFB7986
:10322000DB01134403F5E0733A681A6000BF0C3702
:10323000BD4680BC704700BF0000014080B483B031
:1032400000AF03463960FB71064AFB79DB0113448A
:1032500003F5E8733A681A6000BF0C37BD4680BCBE
:10326000704700BF0000014080B485B000AF034646
:10327000FB710B4AFB7910331B0113441B68FB6085
:10328000FB6883F00403FB60054AFB7910331B01E4
:103290001344FA681A6000BF1437BD4680BC7047FB
:1032A0000000014080B483B000AF0346FB7197F982
:1032B0000730002B0BDBFB7903F01F02064997F95F
:1032C00007305B09012000FA02F241F8232000BF19
:1032D0000C37BD4680BC704700E100E080B483B08D
:1032E00000AF0346FB7197F90730002B12DBFB7927
:1032F00003F01F020A4997F907305B09012000FA21
:1033000002F2203341F82320BFF34F8F00BFBFF3F9
:103310006F8F00BF00BF0C37BD4680BC704700BF39
:1033200000E100E080B584B000AF0346FB71FB799B
:103330002C2202FB03F3134A1344BB604FF4002317
:10334000FB60BB685B7E002B03D1BB689B7E002BC0
:1033500007D0BB6801221A70FB6843F00203FB60D0
:1033600002E0BB6800221A70BB6800225A70FB7929
:10337000F968184600F05AFA002318461037BD467F
:1033800080BD00BFB007002080B584B000AF034609
:103390000A46FB711346BB71FB792C2202FB03F337
:1033A000124A1344BB600023FB60BB79012B04D19C
:1033B000FB79002B01D1012314E0BB79012B03D051
:1033C000BB689B7E002B07D0BB68BA795A70BB687C
:1033D00005221A700A23FB60FB79F968184600F091
:1033E00025FA002318461037BD4680BDB0070020DF
:1033F00090B58BB000AF03463960FB71002387F8AE
:1034000027300023BB84FB791846FFF771FEF86173
:10341000FB791846FFF780FE034603F00303BB6108
:10342000FB791846FFF72CFE7861FB792C2202FB12
:1034300003F39E4A13443B613B6803F00103002BF6
:1034400002D03B6901221A763B691B78052B00F2FA
:103450008C8101A252F823F0713400087534000801
:10346000DB340008C73500088F3600083537000800
:10347000002380E17B6903F00203002B40F06E81A2
:103480003B691B7E002B00F06981BB69022B0DD1CB
:103490003B695B7E002B09D03B6903221A703B69B4
:1034A00000225A76012387F8273015E0BB69002BEC
:1034B0000AD13B699B7E002B06D03B6904221A701F
:1034C000012387F8273007E00123BB84FB79002123
:1034D0001846FFF759FF41E140E17B6903F0020321
:1034E000002B41D13B691B7E002B3DD0BB69012BDA
:1034F0003AD1FB6903F04003002B35D03B69DA6811
:103500003B691B691A443B69DA603B69DA683B69CD
:103510009B689A4222D33B6900221A703B69DB699F
:10352000002B09D03B69DB693A6951683A699268B6
:10353000F87998470346BB84BB8C002B08D13B69C4
:103540001B78002B3DD1FB791846FFF7EBFE38E0E6
:10355000FB7900211846FFF717FF32E0FB790121C4
:10356000184600F00DF92CE0FB6903F00F03002B67
:1035700000F0F6803B6900221A703B699B6A002BC1
:1035800008D03B699C6AF8797B69BA69F969A047F8
:103590000346BB84BB8C002B0DD13B691B78002BF1
:1035A00040F0DE803B6902221A70FB790021184648
:1035B00000F0E6F8D4E0FB7900211846FFF7E4FEBE
:1035C000CEE000BFCCE07B6903F00203002B40F0AB
:1035D000C9803B691B7E002B00F0C480002387F864
:1035E0002730FB791846FFF7E9FDF86000233B62BE
:1035F0000FE0FB791846FFF7CFFD3B695A683B693E
:10360000D9683B6A0B441344C2B21A703B6A013357
:103610003B623A6AFB689A42EBD3FB790121184678
:10362000FFF7E0FD3B69DA68FB681A443B69DA6042
:103630003B69DA683B699B689A4222D33B69002266
:103640001A703B691B6A002B09D03B691B6A3A69F7
:1036500051683A69D268F87998470346BB84BB8CB5
:10366000002B08D13B691B78002B7BD1FB791846D6
:10367000FFF758FE76E0FB7900211846FFF784FE3D
:1036800070E0FB790221184600F0D0F86AE03B694F
:103690001B7E002B4AD0FB791846FFF78FFDF860A0
:1036A000FB68082B36D100233B620FE0B0070020F7
:1036B000FB791846FFF770FD01463B695A693B6A82
:1036C0001344CAB21A703B6A01333B623A6AFB6820
:1036D0009A42EDD3FB7901211846FFF783FD3B6940
:1036E0005B6A3A695169FA79104698470346BB8488
:1036F000BB8C002B08D13B691B78042B16D1FB79BE
:103700001846FFF70FFE11E0FB7900211846FFF77E
:103710003BFE0BE0FB7901211846FFF763FD012317
:10372000BB84FB7900211846FFF72EFE002387F8A3
:1037300027301AE07B6903F00203002B14D13B69A8
:103740005B78012B05D1FB7901211846FFF71CFEA0
:103750000AE0FB791846FFF7E5FD05E000BF04E04D
:1037600000BF02E000BF00E000BF97F82730002B49
:103770007FF46AAEBB8C18462C37BD4690BD00BFA7
:1037800080B586B000AF03460A46FB711346BB7195
:10379000FB792C2202FB03F3234A13443B61FB79A0
:1037A00001211846FFF74AFDBB79022B0AD0022BF4
:1037B0000FDC002B0CD0012B0BD1FB791846FFF747
:1037C00053FD06E0FB7904211846FFF76BFC00E08F
:1037D00000BF3B699A683B69D9683B691B690B4428
:1037E000934228BF1346FB603B69DB687B610DE0B9
:1037F0003B695A687B6913441B781A46FB7911466A
:103800001846FFF705FD7B6901337B617A69FB6828
:103810009A42EDD3FB790221184600F007F800BF69
:103820001837BD4680BD00BFB007002080B584B00A
:1038300000AF03463960FB71FB792C2202FB03F3D6
:10384000084A1344FB601F20FFF786FCFB68002238
:103850001A76FB7939681846FFF724FC00BF103749
:10386000BD4680BDB007002080B400AF034B0322EB
:103870001A7000231846BD4680BC704760080020BF
:1038800080B584B000AF00237B810220FFF726FDC6
:103890001D4B1B68002B31D11B4B01221A60FFF717
:1038A0004FFC78607B6803F00403002B0BD0FFF71C
:1038B000DBFF03467B81154B00229A60134B9B680C
:1038C0001846FFF759FC0023FB6008E0FB68DBB2F9
:1038D00079681846FFF78CFDFB680133FB60FB68D5
:1038E000032BF3D97B6823F021031846FFF734FC40
:1038F000054B00221A600220FFF7D4FC7B89184692
:103900001037BD4680BD00BF6C0800206008002055
:1039100080B500AFFFF7B4FF00BF80BD80B400AF3B
:1039200000BFBD4680BC704780B400AFFEE780B4E6
:1039300000AFFEE780B400AFFEE780B400AFFEE763
:1039400080B400AF00BFBD4680BC704780B400AFFC
:1039500000BFBD4680BC704780B400AF00BFBD460D
:1039600080BC704780B400AF0A4B1B680533094A1E
:103970001360084B1B68B3F57A7F07D3054B002211
:103980001A60054B1B680133034A136000BFBD4634
:1039900080BC70474C0100204801002080B58AB0EF
:1039A00000AF744A01214FF08040FEF745FB724B97
:1039B0007B6000237B624FF0FF333B624FF0FF33AD
:1039C000FB613F23BB6117E06C4ABB691B011344D9
:1039D0001A68684B1B689A4202D1BB693B620EE0D1
:1039E000664ABB691B0113441B68002B01D1BB69EC
:1039F000FB61BB69013BBB61BB69002BE4DA3B6A3D
:103A0000B3F1FF3F5DD05D4A3B6A1B0113440C33A9
:103A10001B785BB2002B54DB4FF0FF337B61072335
:103A20003B6112E0554A3B6A1B0113440C331B787F
:103A30001A463B6942FA03F303F00103002B08D155
:103A40003B697B613B69013B3B613B69002BE9DCE6
:103A500000E000BF7B69FB602EE07B6A7A6813445C
:103A60001978464A3B6A1B011A44FB681344043325
:103A70000A461A70414A3B6A1B0113440C331B78F7
:103A80005AB20121FB6801FA03F35BB213435BB244
:103A9000D9B23A4A3B6A1B0113440C330A461A70E6
:103AA0007B6A01337B62334B9B791A467B6A934274
:103AB00006D0FB680133FB60FB68072BCDDD00E01F
:103AC00000BFFB69B3F1FF3F44D02A4B9B791A46F4
:103AD0007B6A93423ED0274B1A682849FB691B0139
:103AE0000B441A60254AFB691B0113440C33002266
:103AF0001A700023BB607B6A7A68134419781F4AE6
:103B0000FB691B011A44BB68134404330A461A704C
:103B10001A4AFB691B0113440C331B785AB201216A
:103B2000BB6801FA03F35BB213435BB2D9B2134A29
:103B3000FB691B0113440C330A461A70BB6801333E
:103B4000BB607B6A01337B620A4B9B791A467B6AB6
:103B50009342D0D1042201214FF08040FEF7CAFAEF
:103B6000012201214FF08040FEF7C4FA00BF283740
:103B7000BD4680BD7008002078080020A801002004
:103B800080B400AF00BFBD4680BC704780B400AFBA
:103B900000BFBD4680BC704780B500AF40210F48D4
:103BA000FFF720FA0346012B16D10C4B1B68D9B244
:103BB0000B4B1B781A460B4B43F82210084B1B7813
:103BC0000133DAB2064B1A70054B1B78402B04D137
:103BD000034B00221A7000E000BF80BD00000340CC
:103BE000A8050020AC05002080B500AF40210F489B
:103BF000FFF7F8F90346012B16D10C4B1B68D9B21D
:103C00000B4B1B781A460B4B43F82210084B1B78C2
:103C10000133DAB2064B1A70054B1B78402B04D1E6
:103C2000034B00221A7000E000BF80BD00800340FB
:103C3000AC060020B006002080B400AF00BFBD4637
:103C400080BC704780B400AF00BFBD4680BC7047E9
:103C500080B400AF00BFBD4680BC704780B400AFE9
:103C600000BFBD4680BC704780B400AF00BFBD46FA
:103C700080BC704780B400AF00BFBD4680BC7047B9
:103C800080B400AF00BFBD4680BC704780B400AFB9
:103C900000BFBD4680BC704780B400AF00BFBD46CA
:103CA00080BC704780B400AF00BFBD4680BC704789
:103CB00080B500AF0220FEF7A7F90420FEF7A4F9B3
:103CC000034B1B6D024A43F00603136500BF80BD22
:103CD00000800D4080B400AF00BFBD4680BC70477F
:103CE00080B400AF00BFBD4680BC704780B400AF59
:103CF00000BFBD4680BC704780B400AF00BFBD466A
:103D000080BC704780B483B000AF0346FB71FB7981
:103D1000072B02D9FB79083B06E0FB79032B02D97C
:103D2000FB79043B00E0FB7918460C37BD4680BCAC
:103D3000704780B483B000AF0346FB71FB79072B5B
:103D400001D9032305E0FB79032B01D9022300E00D
:103D5000012318460C37BD4680BC704780B582B041
:103D600000AF78600B46FB707B6800221A707B689E
:103D700000225A707B6800229A707B680122DA70F8
:103D80007B6800229A807B68FA785A707B680122EF
:103D90001A70FB78023B242B00F2A68001A252F895
:103DA00023F000BF393E0008413E0008493E0008AC
:103DB000513E0008593E0008E93E0008E93E00086F
:103DC000613E0008693E0008E93E0008E93E00083F
:103DD000E93E0008713E0008793E0008813E000877
:103DE000893E0008E93E0008E93E0008E93E000877
:103DF000E93E0008913E0008993E0008A13E0008F7
:103E0000A93E0008B13E0008E93E0008E93E00086E
:103E1000E93E0008E93E0008B93E0008C13E00083E
:103E2000C93E0008D13E0008E93E0008E93E00080E
:103E3000D93E0008E13E00087B6800229A7057E0F6
:103E40007B6800229A7053E07B6801229A704FE0F1
:103E50007B6801229A704BE07B6802229A7047E0EF
:103E60007B6808229A7043E07B6808229A703FE0E2
:103E70007B680A229A703BE07B680A229A7037E0DE
:103E80007B680B229A7033E07B680B229A702FE0DC
:103E90007B6808229A702BE07B6800229A7027E0EA
:103EA0007B6800229A7023E07B6809229A701FE0E9
:103EB0007B6809229A701BE07B6804229A7017E0E5
:103EC0007B6804229A7013E07B6806229A700FE0E8
:103ED0007B6806229A700BE07B680A229A7007E0E2
:103EE0007B680A229A7003E07B6800221A7000BF88
:103EF0007B689B781846FFF71CFF03461A467B68D1
:103F0000DA707B689B781846FFF7FCFE03469AB28E
:103F10007B689A8000BF78680837BD4680BD00BFC7
:103F200082B090B482B000AF786007F1100080E8F2
:103F30000C000B46FB70FB78023B242B00F2148133
:103F400001A252F823F000BFDD3F0008EF3F000858
:103F5000014000081340000825400008694100089E
:103F600069410008374000084940000869410008DD
:103F700069410008694100085B4000086D40000885
:103F80007F4000089140000869410008694100082D
:103F90006941000869410008A3400008B5400008D5
:103FA000C7400008D9400008EB40000869410008FC
:103FB000694100086941000869410008FD400008A6
:103FC0000F41000821410008334100086941000801
:103FD0006941000845410008574100087B681C46BC
:103FE00007F11C0307CB20606160A260C4E07B681E
:103FF0001C4607F11C0307CB20606160A260BBE098
:104000007B681C4607F11C0307CB20606160A2603F
:10401000B2E07B681C4607F11C0307CB206061609F
:10402000A260A9E07B681C4607F11C0307CB206057
:104030006160A260A0E07B681C4607F11C0307CB0F
:1040400020606160A26097E07B681C4607F11C035A
:1040500007CB20606160A2608EE07B681C4607F1A0
:10406000280307CB20606160A26085E07B681C4666
:1040700007F1280307CB20606160A2607CE07B68C9
:104080001C4607F1280307CB20606160A26073E043
:104090007B681C4607F1280307CB20606160A260A3
:1040A0006AE07B681C4607F11C0307CB2060616057
:1040B000A26061E07B681C4607F1100307CB20601B
:1040C0006160A26058E07B681C4607F1100307CBD3
:1040D00020606160A2604FE07B681C4607F1280306
:1040E00007CB20606160A26046E07B681C4607F158
:1040F000280307CB20606160A2603DE07B681C461E
:1041000007F11C0307CB20606160A26034E07B688C
:104110001C4607F11C0307CB20606160A2602BE006
:104120007B681C4607F11C0307CB20606160A2601E
:1041300022E07B681C4607F11C0307CB206061600E
:10414000A26019E07B681C4607F1280307CB2060BA
:104150006160A26010E07B681C4607F1280307CB72
:1041600020606160A26007E07B681C4607F11003D5
:1041700007CB20606160A26078680837BD4690BCBC
:1041800002B0704780B582B000AF786039607B685C
:104190001846FCF737FC074A7B681A607B680022E8
:1041A0001A617B683A681A617B6818460837BD4611
:1041B00080BD00BF8061000880B500AF0548FCF7F6
:1041C00003F80346002B14BF01230023DBB218467B
:1041D00080BD00BF8008002080B500AF0548FBF718
:1041E000F3FF0346002B14BF01230023DBB2184664
:1041F00080BD00BF9408002080B582B000AF786019
:1042000039607B68012B12D13B684FF6FF729342F5
:104210000DD1FDF7ABFC034619460748FFF7B2FF87
:10422000FDF732FC034619460448FFF7ABFF00BF19
:104230000837BD4680BD00BF8008002094080020DC
:1042400080B500AF4FF6FF710120FFF7D5FF80BDAD
:1042500080B582B000AF786039600622396878682E
:10426000FBF75EFF00BF0837BD4680BD80B500AFDD
:1042700001210520FDF7ECFC01210720FDF7E8FCFA
:1042800003212320FDF7E4FC03211F20FDF7E0FCC0
:1042900003212020FDF7DCFC194B5B791846FDF764
:1042A0007DF90346174A1360164B1B681846FDF745
:1042B00005F8144B1B684FF4FA711846FDF724F803
:1042C0000F4BDB791846FDF769F903460E4A136078
:1042D0000D4B1B681846FCF7F1FF0B4B1B684FF4A6
:1042E000FA711846FDF710F84FF4E1310748FFF76F
:1042F000AFFF07490548FCF730F900BF80BD00BF9C
:10430000F0620008A8080020AC0800208008002007
:104310001863000880B584B000AF5C48FBF754FF19
:104320000346002B14BF01230023DBB2002B0DD06A
:104330003B1D56491846FCF7E5F93B1D1946534805
:10434000FCF7F4F83B1D1846FCF72AFA504B1B7893
:1043500083F00103DBB2002B31D04E4B1B78002BD6
:1043600006D04D4B1B78013BDAB24B4B1A7005E07F
:10437000494B1B780133DAB2474B1A70464B1B7816
:10438000632B03D9434B01221A7006E0424B1B7882
:10439000002B02D13F4B00221A70404B1B68404A51
:1043A00051793D4A12781846FDF700F83D4B1B68DD
:1043B0003B4AD179384A12781846FCF7F7FF232098
:1043C000FDF79AFC0346002B14BF01230023DBB248
:1043D000002B12D02E4B01221A7001210520FDF76F
:1043E00037FC01210520FDF769FC01210720FDF7BD
:1043F0002FFC00210720FDF761FC1F20FDF77CFC4E
:104400000346002B14BF01230023DBB2002B12D084
:104410001F4B01221A7001210520FDF719FC002114
:104420000520FDF74BFC01210720FDF711FC0021C1
:104430000720FDF743FC2020FDF75EFC0346002B20
:1044400014BF01230023DBB2002B12D0104B01223A
:104450001A7001210520FDF7FBFB00210520FDF767
:104460002DFC01210720FDF7F3FB01210720FDF7BB
:1044700025FC0A20FCF770F905E03B1D1846FCF707
:104480008FF900F087F81037BD4680BD8008002006
:10449000B2080020B1080020B0080020A8080020C1
:1044A000F0620008AC0800207FB500241023CDE99D
:1044B0000234036815469E69CDE900446B461268D4
:1044C000B0479DF8043003F00603062B09BF012016
:1044D0002046009B2B6004B070BD0098904214BF32
:1044E000012006207047000010B50446024B03600F
:1044F00000F039FC204610BD7463000810B5044676
:10450000FFF7F2FF2046082100F042F8204610BDD8
:104510002DE9F041DDF818801F46DDE908349845A3
:104520000646154607D1079900F020FC18B16571C1
:104530000020BDE8F0813946304600F017FC002825
:10454000F6D00123C4F800802571A371F0E738B5D7
:1045500015461C4600F00AFC20B10823E360062340
:104560002560237138BD2DE9F04105460C461646FD
:104570001F4600F0FBFB48B9032F07D823683246DB
:1045800029462046BDE8F0415B691847BDE8F08147
:10459000FCF71ABA1EB400F09CF81EBC01F002FA37
:1045A0000378472B17D143784E2B14D18378552BA2
:1045B00011D1C378432B0ED10379432B0BD143790F
:1045C0002B2B08D183792B2B05D1C07901288CBFE7
:1045D0000020012070470020704700002DE9F341C2
:1045E0001D4603780E46472B0246C17913D1437806
:1045F0004E2B10D18378552B0DD1C378432B0AD184
:104600000379462B07D143794F2B04D18379522B61
:1046100001D1002930D01046FFF7C2FF002380F0FF
:104620000104E4B2002001904BBB54BB01290ABF36
:1046300052F8203CA2F12003783B01290CBF52F82C
:10464000202C58321C680192236820469B689847AA
:10465000C8B10227019B1B68019333682146D3F838
:1046600010803046012301AAC04770B1019B2B6026
:10467000384602B0BDE8F08101230C46D2E7044C75
:10468000E2E7044CE0E70127E7E70746F0E700BF71
:1046900098630008A063000810B5044600F032F8E3
:1046A00002462046A4F12001FFF77AFF60B154F8DA
:1046B000043C0133012B44F8043C03D1936844F8D3
:1046C000083C9160012010BD9368002BF9D000F0E8
:1046D000A3FA10B500F016F8826801460AB900F096
:1046E0009BFA02F120042046FFF75AFF40B1D3693C
:1046F000013BD36113B9906988609361204610BD76
:104700008860FBE700487047B408002000231A4681
:1047100030B510F8015B05F07F04944023432C066C
:1047200002F10702F5D40B6030BD00231A4630B504
:1047300010F8014B04F07F0595402B43250602F14C
:104740000702F5D41F2A06D8640642BF4FF0FF3493
:1047500004FA02F213430B6030BD50282DE9F341F7
:104760000646884615461F4608D1D01C20F0030097
:1047700050F8044B3C6002B0BDE8F08100F00F033C
:104780000C2B2ED8DFE803F025071D25292D2D2D14
:104790002D1821252900284601A9FFF7B7FF019C04
:1047A000002CE7D006F07003102B08BFA846330694
:1047B000444448BF2468DDE7284601A9FFF7B5FF58
:1047C000EDE7284630F8024BEAE7284630F9024B7D
:1047D000E6E7284650F8044BE2E7284650F8084B35
:1047E000DEE701F0F3FA08B50346FF2B084610D0C8
:1047F00003F07002302A12D007D8202A0BD002D83A
:1048000013F0600F05D001F0E1FA402A0BD0502AD6
:10481000F9D1002008BDBDE8084001F0D4BABDE8D8
:10482000084001F0CDBABDE8084001F0B9BA70B552
:104830000C460146204615461E46FFF7D4FF334678
:1048400001462A462046BDE87040FFF786BF73B593
:104850000C461546064628B301F0A2FA0346204648
:104860002B6010F8011BFF291ED002462B1D30467D
:10487000FFF7DDFF10F8013BFF2B2B7516D010233F
:1048800001A92B75FFF742FF019B0344EB6010F871
:10489000013B01A96B75FFF739FF019B03442B61B5
:1048A00002B070BD0346DAE76B60E3E70023EDE793
:1048B0001FB503AB009300230A46194600F0C6FC5F
:1048C000039805B05DF804FB00232DE9F04F91B08B
:1048D000059300F00303012B06460C4617460ED045
:1048E000022B03D0002B3BD101073BD53946204694
:1048F00001F03EFA90B3092011B0BDE8F08F020735
:1049000006D40D6A38460D21FFF7D2FF85422BD021
:104910000220002306F008060DF1280A06430C22A7
:1049200019463846CDF800A00A9400F0B5FC062ED2
:104930001CD1D4E90A59D4F83080B8F1000F0CBF6B
:104940004FF0010B4FF0030B16F0080600F0078143
:10495000BBF1010F40F0FF8000F05EF90820CBE7CB
:1049600001F034FA0120D4E70620D2E7384601F0FE
:104970001DFA81460028B9D0524601463846FFF755
:1049800066FF394605469DF83C00FFF72CFF0F21D6
:104990000C903846FFF78CFF20F0010808F1FF3833
:1049A0000E9BAB4240F2BF802A469DF83D1006ABFD
:1049B0000020FFF73CFF9DF83D10024607AB0020AA
:1049C000FFF735FF08AB02469DF83D100020FFF7CA
:1049D0002EFF09A9FFF79AFE0A9B069A0546134483
:1049E000434501D90E9DDBE7079A13444345D7D9C8
:1049F000DDF82080B8F1000F01D00B9B9844099D91
:104A000015B10E98013D0544B8F1000F3FF46EAFAB
:104A1000002D00F0F28016F00803029334D04723F3
:104A200023704E2363705523A3704323E370462302
:104A300023714F2363715223A3710023E3714FF05D
:104A4000000B07A92846FFF770FE08A90390FFF79F
:104A50006CFE0799002963D03ADD9DF83C00FF28E1
:104A600032D000F00703042B3FF67AAF01A252F8D0
:104A700023F000BFCD4A0008614900089B4A0008A6
:104A8000CD4A0008C54A0008E379012B0CBF54F851
:104A9000203C04F158030593D1E702250D9A09AB98
:104AA00005FB11220C99FFF758FE099931B15CB34F
:104AB0000022204605ABFFF791FD28B34FF0030B12
:104AC000079D34E00825E9E70025E7E70425E5E749
:104AD000C1F17F5101F57F110D9B01F57F513F31F0
:104AE00003EB8105BCB1029AAAB9059B043D099369
:104AF00055F8041F0029E1D00022204609AB2944C3
:104B0000FFF76CFD0028F3D0089D002D71D0039BAA
:104B10002B441D4695E753F82130002BF4D1CDE707
:104B20004FF0010BF0E700254FF0010BA846F3070B
:104B30007FF50AAFBBF1020F3FF4D8AE0D21384626
:104B4000059EFFF7B5FEC4E90A59C4E90806C4F892
:104B500030800620D0E6002D22DA00F06FF8BBF19D
:104B6000010F02D1204600F034F9002D18DA524628
:104B700049463846FFF76BFE39469DF83C00FFF783
:104B800032FEEB430D9A0C9002EB830353F8262080
:104B90000AB10136FAE70422C4E90A60C4E90C2329
:104BA000002309AE1A46194638460096099400F0CB
:104BB00073FB00230122194638460096099500F040
:104BC0006BFB0F213846FFF773FE002300F0010056
:104BD00040EA080009900F2219463846009600F076
:104BE0005BFBBBF1020F02D12046FFF755FD07200A
:104BF00082E6BBF1000F3FF479AE4FF0020B96E76F
:104C000008B5804701F0E2F8024B1868BFF35B8FEC
:104C1000704700BF0400002008B5FFF7F5FFFFF75D
:104C2000EFFF08B58047FFF7F7FF0000024B186859
:104C3000BFF35B8F704700BF0000002008B5FFF78F
:104C4000F5FFFFF7EEFF02680346D20705D442786E
:104C500002B1FFDE01205870704700207047012329
:104C60000360704710B50446024B0360FFF73CFC3D
:104C7000204610BD2864000810B50446FFF7F2FF77
:104C800020460C21FFF784FC204610BD2DE9F041A1
:104C9000DDF81880064690450F4615461C460BD099
:104CA000B0682A460368CDF818801E6A3946234644
:104CB000B446BDE8F0416047194600F057F80028B7
:104CC000EED00620BDE8F0812DE9F14F0D46DDE97B
:104CD0000A4BDDE90CA6194681461746984600F0B6
:104CE00045F890B1002D3460377109DB2C44A245A2
:104CF0000CBF06240124B471002001B0BDE8F08F80
:104D00000235F9D10123B371F6E7544506D159466E
:104D1000484600F02BF808B17771EDE7D9F80800A4
:104D20003A460368CDE90CA6CDE90A4BDC69294671
:104D30004346A44601B0BDE8F04F60472DE9F0417D
:104D400007460C4615461E46FFF701FC48B9B868F1
:104D50002A46036821469F693346BC46BDE8F041B8
:104D60006047BDE8F081704700207047814208B578
:104D70000ED0406803782A2B0CD049680B782A2B78
:104D800008BF013101F078F9B0FA80F0400908BDA0
:104D90000120FCE70020FAE70378472B17D143787E
:104DA0004E2B14D18378552B11D1C378432B0ED1C0
:104DB0000379432B0BD143792B2B08D183792B2BF0
:104DC00005D1C07901288CBF002001207047002048
:104DD000704710B5044648B100F03BF82046FFF795
:104DE000DBFF18B154F8140CFFF70AFFFFF714FFAC
:104DF00038B50246FFF7D0FF044640B1002552F80F
:104E0000184C104600F025F81DB1FFF717FF0125DB
:104E1000F7E72046FFF705FF0378472B17D14378C4
:104E20004E2B14D18378552B11D1C378432B0ED13F
:104E30000379432B0BD143792B2B08D183792B2B6F
:104E400005D1C07901288CBF0020012070470020C7
:104E5000704738B50446FFF755FC02460568204602
:104E6000A4F12001FFF7D8FF28B90DB1FFF7D4FE58
:104E70001160284638BD54F80C3C2046002BB4BFC6
:104E8000C3F10103013344F80C3C53688D4203F134
:104E9000FF3353601CBF44F8105C1160656A00F07A
:104EA000CDF9E6E703685A004CBF43F0004323F016
:104EB00000431844704700BF2DE9F84339B34F1E33
:104EC000044615463E464FF0000808EB060101EB8C
:104ED000D171491004EBC1094846FFF7E3FF0346CF
:104EE000C80008308F4220440BD0AB420BD8FFF7EC
:104EF000D9FF0138A84201F10108E6D34846BDE8D0
:104F0000F883AB42FAD9884501D04E1EDDE74FF059
:104F100000094846BDE8F883012807D0022807D0D9
:104F2000044B00280CBF1846002070470248704709
:104F300002487047095600080D560008115600082F
:104F400030B5244B044683B08D1E3BB3284601A9DF
:104F5000AFF30080E8B101992A46FFF7ADFF0146A3
:104F6000B8B1FFF79FFF4B68A064012B2ED0002B38
:104F700027DB081DFFF796FF0023C4E9130303682E
:104F8000002B12DBFFF78EFF03460020236103B0E6
:104F900030BD00230920236103B030BD0E4B0F4903
:104FA0001846C91AC9100191D6E7C3F30360FFF789
:104FB000B3FF0028034614BF00200920236103B07B
:104FC00030BD0123081DC4E91303D8E700230520E1
:104FD0002361DCE70000000094670008A46A000871
:104FE000036810B5DA07044606D49B0700F14800B1
:104FF00009D500F05DFC2368590709D51A070ED5BD
:10500000DB0613D510BD00F04BFC23685907F5D41F
:1050100004F1D00000F054FC23681A07F0D404F522
:10502000A87000F055FC2368DB06EBD404F5E870AB
:10503000BDE8104000F090BC0920704703460068AE
:1050400000B11844704700BF704700BF70B50446F8
:105050000E462046316CFFF773FF054698B9D6F827
:1050600040C03246214601202369C4F814C0984745
:105070000828EED0072806D12846316CFFF7E4FF58
:10508000301D00F001FC00F0A1FE00BF2DE9F0474B
:105090004FF0000AADF5727D0DF10C0E01F1040C1C
:1050A000C768D0F8188006461446BCE80F00AEE882
:1050B0000F00BCE80F00AEE80F00BCE80F00AEE840
:1050C0000F009CE80F0002AD8EE80F00C5F800A0AD
:1050D00021E02B6C4FF4F072294673617AA800F03E
:1050E00085FE3146504633697AAA9847889C8246A5
:1050F0006C643346324649460120CDE90058B84732
:105100000446F0B94FF4F07228467AA900F06EFE1A
:10511000BAF1080F1BD13046296CFFF711FF04F1DB
:1051200009095FFA89FA04460028D2D0A96B3346F0
:10513000696432460120CDE900584AF01001B847B1
:1051400000B1092420460DF5727DBDE8F087BAF163
:10515000070FF6D12046296CFFF776FF03A800F071
:1051600093FB00BF406C7047F0B54FF0FF37CB6B3F
:10517000F9B00B6401AC01F1040C0E460546BCE825
:105180000F000FC4BCE80F000FC4BCE80F000FC431
:105190009CE80F0084E80F00009706E06A46294665
:1051A0002B6998470828044608D128461099FFF72C
:1051B000C7FE0028F2D0092079B0F0BD6846FFF79D
:1051C0000FFF062CF7D131462846FFF73FFF00BFFF
:1051D00010B414468461DC6BC16000221C64194663
:1051E00010BC53E770B54369C6680B64AEB90A4694
:1051F000036904460D46014602209847072805D05A
:1052000008280FD129462046FFF720FF3046296C99
:10521000FFF71AFF281D00F037FB0122FFF736FFCA
:1052200000F0D4FD00F0D2FDC2682AB1D1F83CC034
:105230000022C1F840C029E796E700BF704700BFD1
:10524000836801460BB1012018477047012912D02D
:1052500009D873B90F2A0CD800EB820042681846AF
:10526000009B1A6070470339012994BF0120022076
:105270007047022070470846704700BF002300B502
:1052800085B00A4603A900911946FFF7DFFF03988E
:1052900005B05DF804FB00BF012912D009D873B92D
:1052A0000F2A0CD8009900EB820209681846516059
:1052B00070470339012994BF012002207047022062
:1052C00070470846704700BF002310B584B003AC98
:1052D000039200940A461946FFF7DEFF04B010BDA2
:1052E00070B54FF0FF36D36BADF50E7D13640DF145
:1052F0005C0E02F1040C05460C46BCE80F00AEE85B
:105300000F00BCE80F00AEE80F00BCE80F00AEE8ED
:105310000F009CE80F008EE80F00169612E00C219B
:1053200016A86A46FFF7D0FF214616A8A84778B905
:1053300069460820049B16AA98470528064608D007
:10534000092805D068462699FFF7FAFD0028E6D01F
:10535000092616A8FFF744FE30460DF50E7D70BDF8
:105360002DE9F04F1E46CC6C89B054F8043B0D4635
:10537000174600F003080694002E79D002228DF81B
:105380001C201A0C8DF81D201B04D2B2059304EBCF
:1053900082042B6DB8F1020F08BFAC6B13F0010350
:1053A0000CD0384605A900F071FB18B9082009B0E7
:1053B000BDE8F08F092009B0BDE8F08FD4F800A057
:1053C000BAF1000FEDD0019300F008030293022E12
:1053D0004AD0B4F800A0B4F802900434AA6C0F21AB
:1053E000384629F0010B9344FFF748FF834539D82D
:1053F0002AF001025A44824294BF002001204FEA61
:10540000490303F002030AF0010A43EA0A03012BED
:1054100049D0022B32D0002BCCD1B8F1000F02D0F2
:10542000002840F0CE800434D4F800A0BAF1000F78
:10543000CDD1384605A900F029FB0028BAD1019B3F
:10544000002BB3D00F213846FFF718FF0E2102467C
:105450003846FFF739FF38460F216A4AFFF734FF15
:105460000720A8E70020CAE7D4F804900834B5E77D
:105470001B0205930323ADF81C308AE7236823F051
:10548000004BB8F1000F45D128B1029A002A5CD038
:10549000BBF1000F74D0002B00DA04340BF1010BC8
:1054A00004EB8B04C0E7B8F1000F19D1B0B1636809
:1054B0002268991C4FEAD2723FF47CAF05F1580183
:1054C0000133049100F09180201DFFF7B7FD04AB7C
:1054D00001462846FFF782F800285CD10834A3E78C
:1054E0000D213846D5F82090FFF7C8FE8145F5D14B
:1054F000AB6A9C42F2D12046FFF7D4FC0F21024652
:105500003846FFF7E1FE38462A460021FFF7DCFE69
:10551000072050E70D213846D5F82090FFF7AEFE62
:10552000814501D02368B6E7AB6A9C42FAD10423D7
:105530000022C5E90B23E318C5F828B06B63236884
:10554000002B5ADB01230193A8E705F15803CDF89E
:105550000C809146B04604F1040A1E460EE0504607
:105560000496FFF76BFD0022014604AB284609F1C3
:1055700001090AF1040AFFF731F8E8B9D945EED17B
:105580000D213846FFF77AFE0346049A0620C5E946
:1055900009242B620FE781460D213846FFF76EFE86
:1055A000B9F1020F286225D12B46049A43F82C2F1B
:1055B0006B620620AC62FEE646462368DDF80C808E
:1055C00069E72046FFF76EFC02460434AC632846C8
:1055D0001446FFF761F800283FF4ECAE3846224647
:1055E0000F21FFF771FE0720E5E60D213846FFF792
:1055F00045FE2862049B6B62DBE70BF1010004EBC4
:10560000800079E7F14D00080023A9E60123A7E611
:105610000223A5E62DE9F043064615461C46C3B015
:10562000042900F2B880DFE801F09C56B62D030093
:10563000002C40F0B080102A00F2AD800368D8063C
:1056400000F1F18020AF384600F090F9012438468F
:105650000023B16B04FA03F22A4203F1010305D0DF
:105660000A4652F804CB1146C0F800C0042B00F1E2
:105670000400EFD13846B16300F06EF9002043B06A
:10568000BDE8F083032C40F0868094B204EB124313
:10569000102B4FEA12457ED803681F0700F1CB801C
:1056A00020AF384600F036F9B26B07EBC50154B1B4
:1056B0000B4601EBC401D01AE4001D5843F8045B0B
:1056C0008B42FAD122443846B26300F001F900203F
:1056D00043B0BDE8F083012C4FEA124895B256D092
:1056E000052C58D108EB0509B9F1200F53D8B8F1B2
:1056F0000F0F73D9A946002D40F08480B36B65B3BA
:1057000020AF4FF0000907EBC807043F03EBC505C6
:1057100053F8041BAB4247F8041FF9D1B9F1000F4D
:105720000FD06F464146102938BF102107EBC10149
:10573000843903EBC90553F8040BAB4241F8040F5D
:10574000F9D1012C7FD0B8F10F0FB56342D9B9F16F
:10575000000F02D0684600F0B3F8002043B0BDE867
:10576000F083C4B923460124826B371DA8B204FA22
:1057700003F101421CBF52F8041B47F82310013308
:10578000102BF4D115F40050E7D1B26304E008EB1C
:105790000503102B03D9022043B0BDE8F083B8F114
:1057A0000F0FF8D83368DA0706D5304623F0030325
:1057B00040F8483B00F078F820AF384600F074F825
:1057C000B36B002D9DD11D4604353846B56300F0FE
:1057D00067F8C2E720A800F06BF8B8E7B9F1100F3E
:1057E0003FD9A9F110093368D90708D5304623F00D
:1057F000010343F0020340F8483B00F05DF8B9F1C3
:10580000000F31D033685A071FD4B8F10F0F24D9D5
:105810006F46C8F11005384600F056F8002DB36BFE
:1058200080DD20AF6FE723F01003336006F5E870EA
:1058300000F09CF806E723F00803036000F5A87069
:1058400000F068F82CE720AFBEE7304623F00403F1
:1058500040F8D03B00F038F8D7E720A800F02CF84B
:10586000D6E74FF00009BEE7B8F10F0F3FF646AF9D
:1058700020AF384600F020F8B36B002D7FF441AF25
:10588000384600F015F868E700F1340191E8380077
:105890009C46A6464CF8045D90E8FF0FE54600BD27
:1058A00090EC210B704700BF80EC210B704700BFCC
:1058B00090EC200B704700BF80EC200B704700BFBE
:1058C000D0EC200B704700BFC0EC200B704700BF2E
:1058D000F0EC0201F0EC0211F0EC0221F0EC0231EC
:1058E000F0EC0241F0EC0251F0EC0261F0EC0271DC
:1058F000F0EC0281F0EC0291F0EC02A1F0EC02B1CC
:10590000F0EC02C1F0EC02D1F0EC02E1F0EC02F1BB
:10591000704700BFE0EC0201E0EC0211E0EC022174
:10592000E0EC0231E0EC0241E0EC0251E0EC02611B
:10593000E0EC0271E0EC0281E0EC0291E0EC02A10B
:10594000E0EC02B1E0EC02C1E0EC02D1E0EC02E1FB
:10595000E0EC02F1704700BFB0FC0181B0FC0191A6
:10596000B0FC01A1B0FC01B1704700BFA0FC0181F7
:10597000A0FC0191A0FC01A1A0FC01B1704700BFF7
:10598000EC4600B52DE900502DE9FF1F4FF0000354
:105990002DE90C0001A9FFF7E7FBDDF840E012B0AC
:1059A000704700BFEC4600B52DE900502DE9FF1F00
:1059B0004FF000032DE90C0001A9FFF713FCDDF8FF
:1059C00040E012B0704700BFEC4600B52DE9005032
:1059D0002DE9FF1F4FF000032DE90C0001A9FFF78F
:1059E00023FCDDF840E012B0704700BFEC4600B584
:1059F0002DE900502DE9FF1F4FF000032DE90C00A9
:105A000001ABFFF7E5FBDDF840E012B0704700BFE7
:105A1000EC4600B52DE900502DE9FF1F4FF00003C3
:105A20002DE90C0001AAFFF75BFCDDF840E012B0A5
:105A3000704700BF027A03467AB9427AA2B14FF0AA
:105A4000030C4168013A427208680A1D5A6002025A
:105A500083F808C0000E1A6070470068013A1A7295
:105A600002021A60000E7047B0207047002300B594
:105A700085B003A900910C221946FFF7E7FB0398B4
:105A800005B05DF804FB00BFF0E700BF2DE9F0436F
:105A90004FF0000805460E4685B03046FFF7CAFFB6
:105AA000B028044600F0BA80070620D500F0F003C5
:105AB000802B4DD0902B36D0A02B60D0B02B73D044
:105AC000C02B00F08A8000F0F803D02B0BD100F03F
:105AD0000702013205230121284642F40022FFF784
